S0140000706F7274696E675F6C7769702E73726563F2
S31500000000D88E0120F50F0000210E0000F10F000030
S31500000010F10F0000F10F0000F10F0000F10F0000DA
S31500000020000000000000000000000000FD030000CA
S31500000030F10F000000000000150400007D04000020
S3150000004089070000FD06000015080000550800009D
S3150000005089070000FD06000015080000550800008D
S31500000060000000000000000000000000000000008A
S31500000070000000000000000000000000000000007A
S31500000080000000000000000000000000000000006A
S31500000090000000000000000000000000000000005A
S315000000A0000000000000000000000000000000004A
S315000000B0000000000000000000000000000000003A
S315000000C0000000000000000000000000000000002A
S315000000D0000000000000000000000000000000001A
S315000000E0000000000000000000000000000000000A
S315000000F000000000000000000000000000000000FA
S3150000010000000000000000000000000000000000E9
S3150000011000000000000000000000000000000000D9
S3150000012000000000000000000000000000000000C9
S3150000013000000000000000000000000000000000B9
S3150000014000000000000000000000000000000000A9
S315000001500000000000000000000000000000000099
S315000001600000000000000000000000000000000089
S315000001700000000000000000000000000000000079
S315000001800000000000000000000000000000000069
S315000001900000000000000000000000000000000059
S315000001A00000000000000000000000000000000049
S315000001B00000000000000000000000000000000039
S315000001C0FFFFFFFFFFFFFFFFFFFFFFFFFFFFFFFF39
S315000001D0FFFFFFFFFFFFFFFFFFFFFFFFFFFFFFFF29
S315000001E0FFFFFFFFFFFFFFFFFFFFFFFFFFFFFFFF19
S315000001F0FFFFFFFFFFFFFFFFFFFFFFFFFFFFFFFF09
S3150000020010B5054C237833B9044B13B1044800E00C
S3150000021000BF0123237010BD9000002000000000E5
S315000002202859000008B5034B1BB10349034800E0F9
S3150000023000BF08BD000000009400002028590000FF
S31500000240022800D07047024B0248596800F0A6BC4D
S3150000025000460000AC00002008B5034802F064FE2A
S31500000260012002F057F9FBE7C8450000044608B52F
S31500000270094802F061FE204601F0D0FFBFF34F8F20
S315000002800649074BCA6802F4E0621343CB60BFF32A
S315000002904F8F00BFFDE700BFEC45000000ED00E01A
S315000002A00400FA05704700BFFFF7FCBF00B583B036
S315000002B0019000F02FF8019803B05DF804EBFFF70A
S315000002C0CBBF00BF30B501250C480D4C036883B089
S315000002D0591901944FF4807201600A4B0A490B4880
S315000002E0009501F069FFA84201D103B030BD00219D
S315000002F0206803B0BDE8304000F00AB808010020CD
S31500000300B4000020184600000C460000AD020000B4
S3150000031000BE704738B5164C4FF0FF31206801F02B
S31500000320A1FB012803D000212068FFF7F1FF114B44
S315000003301A7802B138BD01220F4D1A70FFF7B4FFCB
S315000003402B68013B2B60002BF4D000232068194654
S315000003501A4601F085F90128F2D000212068FFF73E
S31500000360D7FF2B68013B2B60002BEED138BD00BFB9
S31500000370BC000020B80000200801002038B500238A
S315000003800B4D0C4C01214FF480700B4A2B602370EF
S3150000039001F020F9094B186028B1FFF793FF01F02F
S315000003A0C9FF002038BD0146FFF7B2FFF5E700BFE1
S315000003B008010020B8000020C0000020BC0000207A
S315000003C04FF4807330B4034D034C05600C6013602A
S315000003D030BC70470C0900200C0100204FF48073DC
S315000003E030B4034D034C05600C60136030BC70479D
S315000003F0740900200C05002000BEFEE71EF0040F65
S315000004000CBFEFF30880EFF30980014908470000AD
S31500000410A10400000F4B1968EFF309821EF0100FBC
S3150000042008BF22ED108A22E9F04FEFF30B8342F862
S31500000430043D0A604FF0100080F31188BFF34F8F20
S31500000440BFF36F8F02F0A4F84FF0000080F311881D
S3150000045000F002B8280C0120074801680A6802CAA1
S3150000046081F30B88B2E8F04F1EF0100F08BFB2EC14
S31500000470108A82F309887047280C012010B5EFF323
S315000004801184102383F3118802F072F818B14FF02B
S315000004908052024B5A6084F3118810BD00ED00E0D3
S315000004A008B5836913F8023C022B02D0032B04D84B
S315000004B008BDBDE80840FFF7CFBF40F20541024B3B
S315000004C0024A034800F070FC24470000E44700009D
S315000004D03847000070B440F8203C4FF080756FF04C
S315000004E002040346084E283122F0010240F80C6C43
S315000004F040F8045C40F8244C40F8082C43F8481DAA
S31500000500184670BC704700BFF903000008B5EFF34A
S315000005101181102383F311880A4A13680133012BD2
S31500000520136000D008BD084A084B11605B68C3F32E
S315000005300803002BF6D040F2F641054B054A064863
S3150000054000F032FCE0090020DC09002000ED00E0AC
S3150000055060470000D047000038470000094A08B548
S3150000056013683BB1013B13601BB9074B1B6883F350
S31500000570118808BD40F2FF41044B054A054800F0CA
S3150000058013FC00BFE0090020DC090020A84700009A
S31500000590BC4700003847000000B3194A00B59389EC
S315000005A018B2002899B21ADBBFF34F8F30BFBFF3E2
S315000005B06F8F62B6BFF36F8F72B600280CDA4AF2FD
S315000005C002500F4AB2F8FE33A2F8FE039BB243F480
S315000005D025439181A2F8FE335DF804FB70474AF289
S315000005E0025E4FF0000CB2F8FE33A2F8FEE39BB2B7
S315000005F043F42543A2F80CC0A2F8FE33D4E700BFAB
S3150000060000E0014008B572B601F0DAFE0120FFF7FE
S31500000610C3FF62B6BDE8084001F0DABE0D4B0E4AD4
S315000006201B68A2FB03239B09013BB3F1807F0FD21A
S315000006304FF0E0224FF0F00C0020072110B4074CD9
S31500000640536184F823C05DF8044B906111617047D3
S31500000650704700BFB40B0020D34D621000ED00E0E0
S31500000660F02208B50B4B83F82220FFF7D7FF0A4A82
S31500000670536B43F04043536362B6BFF36F8FEFF3A0
S31500000680148C2CF0040C8CF31488BFF36F8F02DFEC
S3150000069000BEFDE700ED00E000EF00E0EFF30383AE
S315000006A0103B5BB2002B05DB03F1604303F56143AE
S315000006B093F80033704700BFF0B5846A85B00546ED
S315000006C00F4694466E46B4B194E80F0086E80F00D4
S315000006D0EB6920461B7884F804C02360EB6AC4E902
S315000006E002736B6A9847AC6A1CB196E80F0084E8FF
S315000006F00F0005B0F0BD3446EAE700BF30B4EFF3B3
S315000007000383103B5BB21E4A03F1C00152F821007D
S315000007101C4C6FF3104042F8210054F82300C369C3
S315000007201B691BB103691BB130BC704703697BB9F8
S31500000730D0E908240021937803F07F0343F00403F3
S315000007409370C160002CEFD030BC8022FFF7B4BF9D
S31500000750827802F003010229C1680BD0046A91F87D
S3150000076000C084F803C002F003029B1A0A44C0E9E1
S315000007700323D8E70C88056A44F47E44EC81F2E74B
S3150000078000600040280A002010B582B0EFF3038312
S31500000790103B1E4A5BB203F1C00152F821001C4C0B
S315000007A06FF3104042F8210054F82340A27802F07B
S315000007B00303022B236A0CBF198A5979A3690CBF5C
S315000007C0C1F30801C9B2019143B9636AB3B1042206
S315000007D0204602B0BDE81040FFF76EBF02F00302EC
S315000007E001A9606902F0F0FAD4E90521A37803F0C3
S315000007F003031A44C91AC4E9052109B102B010BDA0
S31500000800636A002BFAD00122E2E700BF00600040D5
S31500000810280A002010B5EFF303840C4B103C64B299
S3150000082053F82400D0E90821937803F07B039370F2
S3150000083019B102220021FFF73FFF054BC03453F8E0
S3150000084024206FF3104243F8242010BD280A00200C
S315000008500060004010B5EFF30384194B103C64B2FE
S3150000086053F82400837803F00303022B036A0CBFBA
S31500000870198A597993F804C00CBFC1F30801C9B2AB
S315000008801CF0100F0CF0380206D093F81CC01CF0B8
S31500000890010F08BF42F0400293F804C00CF0C70CE9
S315000008A083F804C0436A0BB1FFF706FF054BC0345B
S315000008B053F824206FF3104243F8242010BD00BFE4
S315000008C0280A0020006000400022034610461A60F5
S315000008D0704700BF0B0A10B41B01064C53FA81F196
S315000008E054F821300020C3F340035DF8044B137025
S315000008F0704700BF00080840090A490101F180411C
S3150000090001F500214B68002013807047090A490150
S3150000091023EA020C01F180411A4001F5002142EA66
S315000009200C4200208A6070470123C8B283404AB94E
S315000009301A040B0A5B0103F1804303F50023002030
S315000009409A6070479AB2F4E7090A490101F18041B9
S3150000095001F5002110B40C6802EA030C4CEA040C01
S3150000096062EA030202EA0C0200205DF8044B0A6008
S31500000970704700BF090A490101F1804101F50021D4
S315000009804B680020C3F30F4313807047012310B454
S315000009904FEA112C4FEA4C1C0CF1804C0CF5002C44
S315000009A0DCF80440C9B203FA01F18BB201EA144142
S315000009B0C91AB1FA81F1490900205DF8044B11709A
S315000009C0704700BF090A490123EA020C01F1804180
S315000009D01A4001F5002142EA0C420020CA60704725
S315000009E006207047012A14D04FF480300B0A5B01B1
S315000009F003F1804303F5002310B4CAB2DC6800FAA1
S31500000A0002F22243120C120400205DF8044BDA6055
S31500000A1070470B0A5B0103F1804303F50023D86896
S31500000A20C9B28A40024392B20020DA60704700BF22
S31500000A3038B50488002C4CD00021436840F20245AA
S31500000A40043303EBC40040F2034C40F2044E0C4660
S31500000A500FE062452FD153F8042C02F0B852B2F1E0
S31500000A60807F14BF41F0020144F002040833834240
S31500000A7010D01A88AA42ECD153F8042C083302F09D
S31500000A80B852B2F1807F14BF41F0010144F0010475
S31500000A908342EED1C943CDB2012000F05DFA0E4B80
S31500000AA0012093F8BB2414432C4083F8BB44BDE8D3
S31500000AB0384000F021BA7245D8D153F8042C02F020
S31500000AC0B852B2F1807F0CBF44F0040441F0040137
S31500000AD0CCE7FF25E0E700BF00E00140F8B504469B
S31500000AE0FFF7A6FFEFF31082012383F31088284E49
S31500000AF033681BB92749CB704023CB703368013369
S31500000B00336082F3108823887BB3626803F1FF3E6B
S31500000B101FFA8EFE02F108011F4C01EBCE0E08E013
S31500000B20D2B21B0113448E450A4644F823001CD05A
S31500000B3008311068928810F4803F4FEA1223EFD0F4
S31500000B40130AD2B202EB031C54F82C701B01134497
S31500000B5020F480356FF310478E4544F82C700A4612
S31500000B6044F82C5044F82300E2D1EFF3108201231D
S31500000B7083F31088336813B13368013B33603368FD
S31500000B801BB980200349CB70C87082F31088F8BD6A
S31500000B90240A0020000D08400008084008B5034B51
S31500000BA003600846FFF79AFF002008BD54524F50D5
S31500000BB008B50846FFF792FF002008BD70B501266C
S31500000BC084B002AB68460C4615460193ADF800604A
S31500000BD0ADF80C100292FFF72BFFEFF3108286F3AD
S31500000BE010881D490B681BB940261C48C370C67087
S31500000BF00B6801330B6082F31088EA034FEA142373
S31500000C00E4B219D41B01164A234442F82350EFF3E9
S31500000C101082012383F310880B6813B10B68013B24
S31500000C200B600B681BB980200C49CB70C87082F32F
S31500000C301088002004B070BD094A04EB031052F876
S31500000C4020601B016FF3104642F8206025F48036C1
S31500000C5042F82060D7E700BF240A0020000D0840B4
S31500000C6000080840064B074993F826001A6A51F80F
S31500000C702030C2F302620449D3400B60704700BFC4
S31500000C8000E0014070000020B40B0020F8B54AF2E5
S31500000C90035001233849394AA1F8FE03A2F804316A
S31500000CA0B2F804319BB2002BFAD101214FF4004572
S31500000CB04FF0090C324CDFF8E4E0324EC4F804E0A1
S31500000CC0DFF8DCE02C48C4F80CE02F4FA2F8001146
S31500000CD02E4AB16031606261276090F82620A560D7
S31500000CE02561056A54F82220C5F30265EA40284DBD
S31500000CF02A6080F8133480F8A2C090F88034A3B339
S31500000D0000231D4981F8813481F8803481F832301E
S31500000D1091F83C301A07FBD543F202100023164A1D
S31500000D20088581F82A3092F83C309B06FBD50120D5
S31500000D300521124BF12683F81C01164B82F826106A
S31500000D40136292F82630106A54F82310C0F302603A
S31500000D50C14000242960F0204FF425410E4B1E733C
S31500000D601C721873A2F8FE13F8BD80F8801440F2C6
S31500000D70C44000F021F8C3E700E0014000C0014094
S31500000D807000002000700040002D310100C2EB0B06
S31500000D90B40B0020211202210020004000127A002C
S31500000DA000366E01704700BF00BEFEE7A0F10100ED
S31500000DB00028FBD1704700BF10B54FF47A72164C6D
S31500000DC0164B24684FF0000EB3FBF4FC4FF0FF33D4
S31500000DD000FB01F1A1FB020483427EEB040407D36E
S31500000DE0B0FBFCF0800880B1BDE81040FFF7DEBF25
S31500000DF04FEA8C0CB1FBFCF1A1FB02128B427EEB9D
S31500000E00020203D308460028EED110BD1846BDE8FD
S31500000E101040FFF7CBBF00BFB40B002000CA9A3BBF
S31500000E2070B500240A4B0B4EB3F84051ADB225FA0B
S31500000E3004F3DB07E0B203D556F8243003B1984734
S31500000E400134102CF3D1024BA3F8305170BD00BF12
S31500000E5000600040E409002030B56FF0FF0585B062
S31500000E60032000F079F84FF0FF311F4C1F4822464F
S31500000E70856400230125CDE90111039104F1C00E1B
S31500000E8032F8020F590960B104A800EB810151F84C
S31500000E900C0C03F01F0C05FA0CFC20EA0C0041F8C0
S31500000EA00C0C724503F10103EAD10199104B0F4A6C
S31500000EB003201167C3F8801202995167C3F88412A0
S31500000EC003999167C3F8881200F016F800230948C1
S31500000ED003F1C00234F8021F0133602B40F82210E0
S31500000EE0F6D105B030BD00BF62460000008000406C
S31500000EF000E100E000600040EFF31081012383F37E
S31500000F001088124B33F8102092B22AB133F8102011
S31500000F10013A92B223F8102033F810309BB293B9FD
S31500000F200B4A10B4B2F8FE330A4C9BB234F81000E8
S31500000F3043F4254323EA0003A2F8FE3381F3108825
S31500000F405DF8044B704781F310887047A80B0020AA
S31500000F5000E001403048000030B4EFF31081012377
S31500000F6083F310880E4A32F810309BB26BB90D4CE1
S31500000F700D4DB4F8FE3335F810C09BB243EA0C03AE
S31500000F8043F425439BB2A4F8FE3332F81030013304
S31500000F909BB222F8103081F3108830BC704700BF36
S31500000FA0A80B002000E00140304800000D4908B5BC
S31500000FB00A6803464AB103330B4823F0030313447C
S31500000FC0834206D810460B6008BD084802460860F2
S31500000FD0F1E701F0F3FE0C234FF0FF3203601046F9
S31500000FE008BD00BFB00B0020D84E0120D80E01204E
S31500000FF000BE704708B500F003F8FFF7BFF9FEE73B
S315000010004FF47001234B244A70B50020C3F88810B2
S315000010109A60FFF715F9FFF739FE0120FFF710F97F
S315000010201E4B83F30A881E481E4A0021121A01F03D
S31500001030D8FE1D481D4A1E49121A01F0C5FE1D4D57
S315000010401D4B5B1B002B07DD00249E1055F8043B4F
S3150000105001349847A642F9DCFFF704FE0320FFF7A8
S315000010607BFF00234FF6FF70144903F1080201339A
S31500001070092B21F81200F8D10320FFF73DFF0220CB
S31500001080FFF7DEF8FFF7E8FEBDE870400020FFF747
S3150000109089BE00BF00ED00E000000000D84E012030
S315000010A090000020D40E01200000002070000020D7
S315000010B02C590000680000206C000020000D08403C
S315000010C010B4164B1A461B688342FBD3516802EBD9
S315000010D0010C60450BD0416800EB010C63450ED056
S315000010E0904203605DF8044B18BF10607047446877
S315000010F01046214400EB010C63455160F0D1084CC9
S315000011002468A342ECD0D3E9003490422144C0E9DC
S3150000111000315DF8044B18BF10607047D00B0120FA
S31500001120B80B00202DE9F041044601F049F9434887
S315000011300368002B59D0424B1E68344248D1631EC7
S315000011400A3345D804F10801640747D1DFF8148152
S31500001150D8F800708F423BD33A4B9C461C6803E09C
S31500001160236823B1A4461C4662688A42F8D3036802
S31500001170A3422DD02368DCF80050CCF80030531A77
S31500001180102B05F1080507D9601842074FD14360B7
S315000011906160FFF795FF62682B4BBF1A19683243EF
S315000011A08F424FF000016260284A38BF1F60136803
S315000011B0216001331360C8F8007001F009F96B076C
S315000011C009D04FF48771224B224A2348FFF7ECFDE2
S315000011D001F0FEF800252846BDE8F08121F007035E
S315000011E008338B42F4D91946B0E71C4B5D0718D17A
S315000011F01D461B4A00214FF00047083A22F007021D
S31500001200104ED31AC6E900510260C2E90011C5E9C1
S3150000121000230D4A3E461360124A1360084B1F60B6
S315000012208BE7073323F007031D460D4AE2E7CD217E
S315000012300D4B084A0848FFF7B7FD00BFB80B002062
S31500001240BC0B0120D00B0120C40B0120C80B0120D0
S31500001250B0480000544900006C480000BC0B002058
S31500001260BB0B0120C00B01203848000018B3194AF7
S3150000127038B5126850F8043C04461342A0F108053C
S3150000128021D050F8081CB9B923EA020340F8043CFF
S3150000129001F096F8104A54F8043C116828460B44AD
S315000012A01360FFF70DFF0D4A136801331360BDE8A5
S315000012B0384001F08DB8704740F22311084B094AB7
S315000012C00948FFF771FD4FF49171084B054A06482E
S315000012D0FFF76AFDBC0B0120C00B0120CC0B0120DF
S315000012E020490000484900006C480000EC48000016
S315000012F04FF0FF31002200F10803C0E90131C0E9D7
S3150000130003330260704700BF00230361704700BFCC
S31500001310436810B49C6802688C609C6801324B601C
S31500001320616099605DF8044B08610260704700BF18
S3150000133030B40D686B1C10D000F108031C465B68C6
S315000013401A68AA42FAD902684B60013299608C6029
S315000013506160086130BC0260704704696368F2E747
S31500001360036910B4D0E901125C688A6051600021FB
S31500001370844208BF5A601A680161013A1A60186807
S315000013805DF8044B704700BF70B51546026C044605
S31500001390866B2AB905684DB300200136A66370BD79
S315000013A07DB9406801F010FD6368226C1344A268A1
S315000013B063609342F0D32368013628466360A663D0
S315000013C070BDC06801F000FD226CE36851429B1AB3
S315000013D02268E360934202D2A3680B44E360022DC5
S315000013E0DAD1012E38BF01260020D7E7806801F048
S315000013F01FFA0136A560D1E770B50546FFF786F8F6
S3150000140095F845305CB2002C14DD05F1240603E0A6
S31500001410631EDAB25CB26AB16B6A5BB1304601F048
S3150000142007F90028F4D001F0A7F9631EDAB25CB21E
S31500001430002AF1D1FF2385F84530FFF78FF8FFF733
S3150000144065F895F844305CB2002C14DD05F1100601
S3150000145003E0631EDAB25CB26AB12B695BB1304657
S3150000146001F0E6F80028F4D001F086F9631EDAB23E
S315000014705CB2002AF1D1FF2385F84430BDE8704004
S31500001480FFF76CB838B500283AD004460D46FFF78A
S315000014903DF8D4E90F3000FB03F32268181A134411
S315000014A00021A360FF2362600244A163E26084F826
S315000014B0443084F84530BDB923691BB9FFF74EF8AF
S315000014C0012038BD04F1100001F0B2F80028F5D073
S315000014D04FF080520E4B5A60BFF34F8FBFF36F8FA2
S315000014E0FFF73CF8012038BD04F11000FFF700FFBC
S315000014F004F12400FFF7FCFEFFF730F8012038BDA9
S3150000150040F20D11034B044A0448FFF74DFC00BF9F
S3150000151000ED00E064490000644D00006C490000E5
S3150000152030B583B058B31C4613B30D46A2B100299B
S3150000153033D048230193019B482B27D101230199DE
S3150000154084F84630E0630121204622602564FFF7D7
S3150000155099FF204603B030BD31BB48230193019B60
S31500001560482B13D101232246019984F84630E9E736
S315000015704FF4A671104B114A1148FFF715FC4FF4B2
S31500001580A471104B0D4A0E48FFF70EFC40F259119C
S315000015900D4B0A4A0A48FFF707FC4FF4A8710B4B9C
S315000015A0064A0748FFF700FC40F25111084B034A70
S315000015B00348FFF7F9FB00BFC4490000484D00008F
S315000015C06C490000A0490000644A0000E44900009C
S315000015D0244A000030B583B0C0B188420D462AD3F4
S315000015E014460AB348230193019B482B15D10121C8
S315000015F000232260D063204684F846102364019AB3
S31500001600FFF740FF2046A56303B030BD4FF43471A9
S315000016100C4B0D4A0D48FFF7C7FB40F259110C4B16
S315000016200C4A0A48FFF7C0FB4FF4A6710A4B094A59
S315000016300648FFF7B9FB40F2D121084B024A03489E
S31500001640FFF7B2FB804A0000244D00006C49000001
S31500001650644A0000484D0000C4490000904A00005A
S315000016602DE9F04784B00192002800F0A8800446D6
S3150000167089461F46002900F08880022F03D1E36BBC
S31500001680012B40F0A38001F07DF80546002851D0DB
S3150000169000254FF00008DFF850A107E0FEF75EFFD7
S315000016A02046FFF7A9FE00F093FE0125FEF72EFF68
S315000016B0A36BE06B83424BD3022F49D0019E002ED1
S315000016C06ED0002D40D0FEF749FF00F079FEFEF700
S315000016D01DFF94F84430FF2B08BF84F8448094F82B
S315000016E04530FF2B08BF84F84580FEF737FF02A878
S315000016F001A900F0F7FF002858D1FEF707FFA26BFB
S31500001700E36B9A42CAD1FEF729FF019904F1100052
S3150000171000F04CFF2046FFF76FFE00F059FE002850
S31500001720C3D14FF08053CAF80430BFF34F8FBFF3D5
S315000017306F8FBAE7019B002BABD040F21131274BDC
S31500001740274A2848FFF730FB02A800F0BFFFBAE798
S315000017503A4649462046FFF717FE636A33B958B939
S31500001760FEF7FCFE012004B0BDE8F08704F124007A
S3150000177000F05EFF0028F3D04FF080521A4B5A60FB
S31500001780BFF34F8FBFF36F8FEAE7036C002B3FF475
S3150000179074AF40F20D31154B114A1248FFF704FBA6
S315000017A0FEF7DCFE304604B0BDE8F0872046FFF7C2
S315000017B023FE00F00DFE002004B0BDE8F0874FF4D4
S315000017C043710B4B064A0748FFF7EEFA40F20E311B
S315000017D0084B034A0348FFF7E7FA00BF584B0000DF
S315000017E0104D00006C49000000ED00E0B04A00001A
S315000017F064490000084B00002DE9F04100284ED056
S3150000180004460E4617461D4661B3022D02D1E36B10
S31500001810012B4BD1FEF742FFEFF31188102383F320
S315000018201188A26BE36B9A4206D3022D04D00020E6
S3150000183088F31188BDE8F0812A4694F84550314670
S3150000184020466DB2A36BFFF79FFD6B1C14D07F2D56
S3150000185033D001356DB2012084F8455088F31188E4
S31500001860BDE8F081036C002BCFD040F2E131164B7E
S31500001870164A1748FFF798FA636A23B9012088F3D6
S315000018801188BDE8F08104F1240000F0D1FE0028A3
S31500001890F4D0002FF2D0012318463B60C8E74FF47E
S315000018A078710C4B094A0A48FFF77EFA40F2E2319A
S315000018B0094B064A0648FFF777FA40F26B41074B99
S315000018C0024A0348FFF770FAB04A0000F44C0000E1
S315000018D06C49000064490000084B0000AC4B000056
S315000018E02DE9F04385B00192002800F0A880044657
S315000018F00E46002972D000F045FF00285BD0FEF7A7
S3150000190005FEA56B002D73D1019B002B38D002A8D4
S3150000191000F0DCFE2F46DFF8449104F12408FEF7C0
S315000019201DFE00F04DFDFEF7F1FD94F84430FF2B4F
S3150000193008BF84F8447094F84530FF2B08BF84F83C
S315000019404570FEF70BFE01A902A800F0CBFEE8B930
S31500001950FEF7DCFDA36B33BBFEF700FE40460199A4
S3150000196000F024FE2046FFF747FD00F031FD60B38E
S31500001970FEF7CCFDA56B002D3AD1019B002BCED1F5
S31500001980FEF7ECFD002005B0BDE8F0832046FFF72A
S3150000199033FD00F01DFDFEF7B9FDA36B002BEFD064
S315000019A0FEF7DCFDE4E7FEF7D9FD2046FFF724FD50
S315000019B000F00EFDDCE7019B002BA0D04FF4A761E1
S315000019C0224B234A2348FFF7EFF94FF08053C9F81B
S315000019D00430BFF34F8FBFF36F8FC9E7036C002B43
S315000019E089D040F233511C4B194A1A48FFF7DCF9EB
S315000019F0226C5AB1E168A36811449942E16028BF9C
S31500001A002168304628BFE16001F0DEF9013DA5639B
S31500001A1023692BB9FEF7A2FD012005B0BDE8F083CE
S31500001A2004F1100000F004FE0028F3D04FF08052BD
S31500001A300A4B5A60BFF34F8FBFF36F8FEAE740F24E
S31500001A402F51074B024A0348FFF7AEF9584B0000E7
S31500001A50E44C00006C490000584C000000ED00E02A
S31500001A604C4C00002DE9F04184B00191002800F0B3
S31500001A70CE80066C0446002E40F0C28000F082FE46
S31500001A80054600285AD03546FEF740FDA36B0027D1
S31500001A90DFF89881002B42D1019B002B00F0948047
S31500001AA0002D62D0FEF75AFD00F08AFCFEF72EFDEF
S31500001AB094F84430FF2B08BF84F8447094F84530FE
S31500001AC0FF2B08BF84F84570FEF748FD02A801A960
S31500001AD000F008FE00283CD1FEF718FDA36B002B92
S31500001AE047D1FEF73BFD2368002B64D0019904F132
S31500001AF0240000F05BFD2046FFF77EFC00F068FC4A
S31500001B0038B94FF08053C8F80430BFF34F8FBFF396
S31500001B106F8FFEF7FBFCA36B0125002BBCD0226860
S31500001B20013BA363002A67D02369002B55D1012608
S31500001B30FEF714FD304604B0BDE8F081019B064671
S31500001B40002BA1D040F2CA51344B354A3548FFF735
S31500001B502BF92046FFF750FC00F03AFCFEF7D6FCC6
S31500001B60A36B73B1FEF7FAFCD3E702A800F0AEFD53
S31500001B7098E7FEF7F3FC2046FFF73EFC00F028FC52
S31500001B80C7E7FEF7EBFC1EB9304604B0BDE8F081AE
S31500001B90FEF7BCFC616A49B9A06800F095FE002614
S31500001BA0FEF7DCFC304604B0BDE8F081236B196813
S31500001BB0C1F10501F0E7FEF7A9FCA06800F0F2FD0F
S31500001BC00646FEF7CBFC91E7002EE9D04FF4C26142
S31500001BD0154B134A1348FFF7E7F804F1100000F01D
S31500001BE027FD0028A3D04FF08052104B5A60BFF358
S31500001BF04F8FBFF36F8F9AE700F0BEFEA06093E7AA
S31500001C0040F2C5510A4B064A0648FFF7CDF840F2A6
S31500001C10C151084B024A0348FFF7C6F8584B00006B
S31500001C20784D00006C490000B44C000000ED00E067
S31500001C30CC4B00004C4C0000002310B4084C54F868
S31500001C4033202AB101330A2BF9D15DF8044B7047D2
S31500001C5004EBC30244F8331050605DF8044B704740
S31500001C60D80B012070B504460E461546FEF74EFC0D
S31500001C7094F84430FF2B04BF002384F8443094F8D2
S31500001C804530FF2B04BF002384F84530FEF766FC81
S31500001C90A36B23B12046BDE87040FFF7ADBB04F14E
S31500001CA024002A46314600F09FFC2046BDE87040DD
S31500001CB0FFF7A2BB2DE9F8430446FEF727FC334A9B
S31500001CC0334D1368013313602B68002B2FD0314E30
S31500001CD0336823B3E36A304F304931480A6801322A
S31500001CE00A600268211D9A4238BF036003EB830332
S31500001CF007EB8300FFF70CFBFEF730FC336863B19C
S31500001D002A68E36AD26A9A4207D24FF08052254B7C
S31500001D105A60BFF34F8FBFF36F8FBDE8F8832A6811
S31500001D20E36AD26A1C4F9A4298BF2C60D4E72C60B3
S31500001D301368012B03D0E36A174F164ECCE7164FF4
S31500001D403E4607F1640830461436FFF7D1FAB0452F
S31500001D50F9D1DFF86890DFF868804846FFF7C8FADF
S31500001D604046FFF7C5FA1048FFF7C2FA0F48FFF7DB
S31500001D70BFFA0F48FFF7BCFA0E4B064EC3F80090A9
S31500001D800D4BC3F80080E36AA6E700BF980C01205C
S31500001D90280C0120F40C0120340C0120A40C012095
S31500001DA0A80C012000ED00E0E00C01200C0D012044
S31500001DB0F80C01202C0C0120300C0120AC0C012069
S31500001DC0C00C0120F8B50546154B164E1C68306848
S31500001DD00F460430FFF7C4FA6B1C17D0336864193A
S31500001DE05C6007D3104B18683168BDE8F8400431D1
S31500001DF0FFF79EBA0D4B186831680431FFF798FA61
S31500001E000B4B1A68A24288BF1C60F8BD002FE5D0B4
S31500001E10316808480431BDE8F840FFF779BA00BFD9
S31500001E20200D0120280C0120300C01202C0C012053
S31500001E30D40C0120F80C0120002238B51D4B1E4C95
S31500001E401A602268236812681B6B9A4224D91B4DBC
S31500001E501B492B6803EB830292008A58980042B90B
S31500001E6003B3013B03EB830251F822209800002ABA
S31500001E70F6D0184401EB800C6146DCF804200831EA
S31500001E8052688A42CCF8042004BF5268CCF8042079
S31500001E90D26822602B6038BD206821683431FEF795
S31500001EA0E5F9D4E740F6FE31064B074A0748FEF748
S31500001EB07BFF00BF240D0120280C0120A80C012067
S31500001EC0340C0120C84D000000500000944D000065
S31500001ED02DE9F04182B002F18045DDE90964276B06
S31500001EE0013D07EB8507024627F0070700293AD090
S31500001EF001F1FF3C01F10F0504F1330E1CF9011F3E
S31500001F000EF8011F09B1AC45F8D1002184F8431041
S31500001F10CDE90023089B0025042B28BF04239846FF
S31500001F20C4E91135E362201DFFF7EEF904F118004C
S31500001F30FFF7EAF9DDE90023C8F10501A16138469A
S31500001F40216B24616462E56425656565A565E565C3
S31500001F50256684F86450FEF7BDFA206006B1346049
S31500001F6002B0BDE8F08184F83410D1E74FF0805814
S31500001F7080B5204C204E214DDFF890A0DFF89090E0
S31500001F8023682BB3FEF7C2FAF368DF68381DFFF744
S31500001F90E7F92B68013B2B602368013B2360FEF7C2
S31500001FA0DDFA97F8653053B1012B1ED0022BE7D02E
S31500001FB040F69171124B134A1348FEF7F5FE386B43
S31500001FC0FFF754F93846FFF751F92368002BD9D1AA
S31500001FD0DAF80030012B05D9C9F80480BFF34F8F1A
S31500001FE0BFF36F8FFEF70EFBCAE73846FFF73EF9E1
S31500001FF0C6E700BF9C0C01200C0D0120980C0120A7
S31500002000D84D000058500000944D0000340C0120BB
S3150000201000ED00E02DE9F04F3D4B83B01E68013620
S315000020201E60002E49D0DFF808B1DBF800309E4272
S3150000203039D3384F3B681D68002D55D00025DFF891
S31500002040F480DFF8F4A0DFF8F49023E0211D0846C1
S315000020500191FFF785F9A36A019923B104F11800EC
S31500002060FFF77EF90199D8F80030E06A984288BFF8
S31500002070C8F8000000EB80000AEB8000FFF748F983
S31500002080D9F800203B68E16AD26A1B68914228BFF2
S3150000209001254BB33B68DB68DC6863689E42D5D29A
S315000020A0CBF8003000E000251B4B1B68002B0CBF53
S315000020B02846012003B0BDE8F08F164B1A68126857
S315000020C0FAB9164A186811681960154910600A6845
S315000020D001320A601A6812685AB94FF0FF33DFF806
S315000020E050B0CBF80030A0E74FF0FF33CBF800300C
S315000020F0DAE71B68DFF838B0DB681B68CBF800301E
S3150000210093E740F6C321074B074A0848FEF74CFE03
S31500002110200D01202C0C0120240D0120300C012063
S31500002120D80C01200C4E000014500000944D000005
S31500002130D40C0120A80C0120340C0120280C01200D
S3150000214070B586B0DDE90B54BDB124B3682605969B
S31500002150059E682E18D125630A9D02940095059D5B
S31500002160022584F8655004AD0195FFF7B1FE2046BF
S31500002170FFF7A0FD049806B070BD4FF41271094B2D
S31500002180094A0A48FEF710FE40F25121084B064A5A
S315000021900648FEF709FE40F24921064B024A03486B
S315000021A0FEF702FE844E000074500000944D0000BD
S315000021B0C04E0000A44E00002DE9F043074685B04E
S315000021C09000154688469946FEF7ACFFD8B10446FE
S315000021D06820FEF7A7FF0646D0B10463002486F800
S315000021E065400D9C4B4601940C9C2A464146384658
S315000021F002960094FFF76CFE3046FFF75BFD012068
S3150000220005B0BDE8F0834FF0FF3005B0BDE8F083C0
S315000022102046FFF72BF84FF0FF30F1E770B5044684
S31500002220354DFEF773F9002C3ED0261D3046FFF7DC
S3150000223097F8A36A1BB104F11800FFF791F82F4A2B
S315000022401368013313602B68A34224D02C4A2D490E
S315000022501368013B13600B681B68BBB10A682A4B05
S31500002260D26812681A60FEF779F92B68A34206D085
S3150000227094F8653033B3012B2BD0022B34D1234B8A
S315000022801B6813B12B68A34210D070BD4FF0FF320C
S315000022901D4B1A60E7E731461D48FFF739F81D4A1E
S315000022A0136801331360DEE72C68BEE71A4B1B6820
S315000022B09BB94FF08052194B5A60BFF34F8FBFF353
S315000022C06F8F70BD206BFEF7D1FF2046FEF7CEFF65
S315000022D0D5E72046FEF7CAFFD1E740F2D941104BB9
S315000022E0104A1148FEF760FD40F691710F4B104AF7
S315000022F00D48FEF759FD00BF280C0120A40C012053
S31500002300980C01202C0C0120D40C0120F40C012087
S315000023100C0D01209C0C0120A00C012000ED00E01A
S31500002320DC4E000068500000944D0000D84D0000BF
S315000023305850000030B5002489B007AA06A905A8A0
S31500002340CDE90544FEF73CF8DDE905012346CDE974
S315000023500110079A114912480094FFF7F1FE78B16F
S3150000236000F04CFB01280FD180F310884FF0FF35A9
S315000023700C490D4A0D4B0D6010601C60FEF770F99C
S315000023800B4B1B6809B030BD0130F9D140F63D0159
S31500002390084B094A0948FEF707FD00BFF84E000042
S315000023A06D1F0000D40C0120F40C0120200D01202B
S315000023B000000020004F000038500000944D00003F
S315000023C0024A136801331360704700BFA00C012056
S315000023D02DE9F04F414C83B02368002B77D0FEF7F0
S315000023E095F82368013B23602368002B5FD13C4BA3
S315000023F01B68002B5BD03B4D2B68002B64D03A4EFC
S31500002400DFF80881394FDFF80891EB68D3F80CB094
S315000024100BF1040A0BF11800FEF7A2FF5046FEF777
S315000024209FFFDBF82C0033685146984288BF306026
S3150000243000EB800008EB8000FEF76AFF3B68DBF8E4
S315000024402C20DB6A9A4224BF0123C9F800302B688E
S31500002450002BDAD1264B1A681268002A2FD01A6888
S31500002460244BD26812681A60234E356895B101274D
S3150000247006E0FFF7CFFD08B1C9F80070013D08D0AE
S315000024802368002BF5D03368013D03F10103336067
S31500002490F6D13560D9F800304BB14FF08052174B6A
S315000024A05A60BFF34F8FBFF36F8F012000E000200B
S315000024B00190FEF753F8019803B0BDE8F08F4FF096
S315000024C0FF320C4B1A60CFE7DFF84490CCE74FF4AD
S315000024D00B610B4B0B4A0C48FEF766FCA00C012067
S315000024E0980C0120E00C0120A80C0120280C0120EA
S315000024F02C0C0120D40C0120DC0C012000ED00E0A6
S31500002500144F000028500000944D0000340C0120A8
S31500002510240D012008B550B10D4B196881B91A6810
S3150000252001321A60FFF74EFCFFF752FF38B94FF041
S315000025308052084B5A60BFF34F8FBFF36F8F08BDB1
S3150000254040F24651044B054A0548FEF72DFC00BFF4
S31500002550A00C012000ED00E0DC4E00004C50000015
S31500002560944D0000014B1868704700BF200D0120F4
S31500002570054B1B680BB9FFF74DBD044A00201368D5
S3150000258001331360704700BFA00C0120DC0C012052
S31500002590044B1B681BB10122034B1A607047FFF7FF
S315000025A04BBC00BFA00C0120240D012010B558B172
S315000025B00C46094B19681831FEF7BAFE2046BDE8ED
S315000025C010400121FFF7FEBB40F61841034B044AB9
S315000025D00448FEF7E9FB00BF280C01202C4F000041
S315000025E0E84F0000944D000038B588B114460D46FA
S315000025F00B4B19681831FEF78BFE002C214608BFDD
S315000026002846BDE8384018BF4FF0FF30FFF7DABB69
S3150000261040F64741034B044A0448FEF7C5FB00BF9A
S31500002620280C01202C4F0000C84F0000944D0000DC
S3150000263030B5C36883B0DC68002C2ED004F11805D1
S315000026402846FEF78DFE184B1B687BB129461748B6
S31500002650FEF75EFE164BE26A1B68DB6A9A4219D9E0
S3150000266001231846134A136003B030BD211D0846E6
S315000026700191FEF775FE104AE36A106801998342DC
S315000026800E4888BF136003EB830300EB8300FEF75D
S315000026903FFEDFE7002003B030BD40F67741084B30
S315000026A0084A0948FEF780FBA00C0120E00C012037
S315000026B0280C0120240D0120A80C0120340C012037
S315000026C0384F0000AC4F0000944D0000034A044B05
S315000026D012681B68C0E90023704700BFD80C0120B0
S315000026E0200D0120F0B583B058B30D4681B30446E2
S315000026F0FDF70CFF2B681A4A581C11681FD0D4E945
S315000027000060DFF870C0DCF80070BE420AD0884274
S3150000271008D8002301202B600190FDF71FFF0198C8
S3150000272003B0F0BD0F1ABB42F3D95B1ADCF80010F8
S31500002730126803442B600020C4E90012ECE7002075
S31500002740EAE740F6F241074B074A0848FEF72CFB3A
S3150000275040F6F341064B044A0448FEF725FB00BF4A
S31500002760200D0120484F0000C4500000944D000089
S31500002770544F0000D80C01200122014B1A6070470B
S31500002780240D0120054B1B6833B1054B1B68002B3C
S315000027900CBF02200020704701207047F40C012076
S315000027A0A00C012070B5044682B0C8B11D4DC36AA5
S315000027B02A68D26A934215D28269002A04DB2A6803
S315000027C0D26AC2F105028261174E626903EB830386
S315000027D006EB83039A420ED001202B68DB6AE36284
S315000027E002B070BD2B68406CDB6A98422CBF00209B
S315000027F0012002B070BD211D08460191FEF7B0FD13
S315000028002A680A4BD06A1A68E062904288BF18604C
S3150000281000EB800006EB80000199FEF779FD0120B0
S31500002820DEE700BF280C0120340C0120A80C012093
S3150000283088B110B51D4B82B01C68844227D1A36CA9
S3150000284063B3E16A626C013B9142A36400D023B199
S31500002850002002B010BD00207047211D08460191DE
S31500002860FEF77EFD636C124AC3F10500A061106895
S31500002870E36283420F4888BF136003EB830300EBD8
S3150000288083000199FEF744FD012002B010BD41F21C
S315000028904401094B094A0A48FEF786FA41F2450106
S315000028A0084B064A0648FEF77FFA00BF280C0120AF
S315000028B0A80C0120340C0120644F0000AC5000002D
S315000028C0944D00007C4F000080B130B5826C044608
S315000028D083B0002A33D0406CE36A814238BF014698
S315000028E08B4201D0012A02D003B030BD70471B4A8B
S315000028F01268A2422AD0A269194D002A03EB83036B
S315000029006269E16205EB8303A4BFC1F10501A16120
S315000029109A42E9D1211D08460191FEF721FD114B8E
S31500002920E06A1A680199904288BF186000EB80003F
S3150000293005EB800003B0BDE83040FEF7E9BC41F28C
S315000029409401094B094A0A48FEF72EFA41F2AF01F3
S31500002950084B064A0648FEF727FA00BF280C012056
S31500002960340C0120A80C01207C4F00008850000088
S31500002970944D0000944F0000044B1A681AB1196870
S315000029808A6C01328A641868704700BF280C0120DF
S31500002990F0B5124C83B0FDF7B9FD256825B103B03B
S315000029A0BDE8F040FDF7DABD0D4F0E4E3846FEF796
S315000029B09FFC3046FEF79CFC0B4A009517600B4ABD
S315000029C00C2116600A200A4B0A4AFEF7A9FD206070
S315000029D00028E4D00849FFF72FF9E0E71C0E012094
S315000029E0A80D0120BC0D0120280D01202C0D012071
S315000029F0D40D0120300D0120DC50000030B589B027
S31500002A00FFF7C6FF114B1B68CBB10024032507AAAD
S31500002A1006A905A8CDE90544FDF7E0FCDDE90501B9
S31500002A202346CDE90110079A09490A480095FFF7A0
S31500002A3087FB094B186010B1012009B030BD40F288
S31500002A400D11064B064A0748FEF7AEF91C0E01208B
S31500002A5034510000692B0000200E01203C5100007B
S31500002A60C45100000051000030B585B038B3174D91
S31500002A702C68D4B10529CDE9011203900CDCFFF7CF
S31500002A8081FE02284FF0000312D01A46286801A9D9
S31500002A90FEF7E6FD05B030BD9C46204600236246A3
S31500002AA001A9FEF7A9FE05B030BD204605B030BD30
S31500002AB0089A286801A9FEF7D3FD05B030BD4FF48A
S31500002AC0C171034B034A0448FEF76EF91C0E012040
S31500002AD044510000DC510000005100002DE9F04196
S31500002AE04FF000081B4E82B00DE0DB68DC681F6803
S31500002AF0251D2846FEF734FC236A2046984794F89D
S31500002B0024305B070AD433681A68002AEDD1124ACA
S31500002B1011681360316002B0BDE8F081A3693B44DF
S31500002B209F4206D22946306863602461FEF700FCA6
S31500002B30E9E700233A4620461946CDF80080FFF71C
S31500002B4093FF0028DFD140F2A931044B044A05481F
S31500002B50FEF72AF9280D01202C0D01204C5100000A
S31500002B60B0510000005100002DE9F04F894F8A4E08
S31500002B70DFF84482894C87B03B68D3F80090B9F1FE
S31500002B80000F00F09980DB68D3F80090FFF718FC7F
S31500002B90FFF7E8FC336805469842C0F09D80814502
S31500002BA0306040F2AB8000222068A9EB0501FFF7F8
S31500002BB059F8FFF70DFC38B94FF08052784B5A6040
S31500002BC0BFF34F8FBFF36F8F4FF0000900222068CD
S31500002BD003A9FEF785FE0028CED0039B002BF5DB6C
S31500002BE0059D6B6913B1281DFEF7BAFBFFF7BAFC0A
S31500002BF033688246984275D3039BC6F800A0092B1A
S31500002C00E4D8DFE803F005050549335005054933E7
S31500002C1095F82420049BA96942F00102581885F80A
S31500002C2024202CBF01220022504568602D615CD80B
S31500002C30AAEB0303994229D82B6A2846984795F8A8
S31500002C4024305907C2D50023A969049A28460A44A4
S31500002C50CDF800901946FFF707FF0028B6D140F2DD
S31500002C603631504B504A5148FEF79EF895F82420CD
S31500002C70049B42F0010285F82420AB61002B00F092
S31500002C808280534453456B602D6132D8D8F80000DA
S31500002C90291DFEF74DFB99E795F8243023F0010333
S31500002CA085F8243092E795F824309A073ED523F02C
S31500002CB0010385F8243089E7FFF782FBFFF752FC12
S31500002CC033680546984207D3D8F8003035601A684D
S31500002CD0B2FA82F2520967E7FFF700FF3560FFF7A5
S31500002CE077FB71E7FFF7FAFE86E7534501D9002A1D
S31500002CF0A2D03868291DFEF71BFB67E7FFF768FBC4
S31500002D003B68DB68D3F80CA00AF1040B5846FEF7C3
S31500002D1027FB9AF8243058070CD423F001038AF8CD
S31500002D2024305046DAF8203098474DE72846FEF71B
S31500002D309DFA4BE7DAF81820CAF810A009EB02034F
S31500002D40AB42CAF8043004D959463868FEF7F0FA9F
S31500002D50E7E7A5EB0905AA420FD800234A465046E5
S31500002D6019460093FFF780FE0028DAD14FF405716B
S31500002D700C4B0F4A0D48FEF717F85946D8F80000D5
S31500002D80FEF7D6FACDE740F24F310A4B064A07481E
S31500002D90FEF70AF8280D0120D00D01201C0E012097
S31500002DA000ED00E04C5100007C5100000051000095
S31500002DB098510000545100002C0D0120014B186859
S31500002DC0704700BF040000200A44431E914200D110
S31500002DD0704710B511F8014B914203F8014FF9D134
S31500002DE010BD02440346934200D1704703F8011B0D
S31500002DF0F9E7FFFF8369F7B505460E46C4680BB9C8
S31500002E0000F00AFC434B9C4232D16C68636ED807D3
S31500002E1005D4A389990502D4A06D00F09BFC214638
S31500002E20284600F027FB6EBB01AB01222968284625
S31500002E3000F09AF8074600284FD1374800F07AFA92
S31500002E40354F064656B1204600F050FB3346014644
S31500002E503A46284600F078FA002851DAB4F90C30E0
S31500002E60626E23F48053D207A3814CD503B0F0BD24
S31500002E702A4B9C4201D1AC68C8E7294B9C4208BF4B
S31500002E80EC68C3E73378002BCED0304600F052FA18
S31500002E90074657B1204600F029FB3B46014632461D
S31500002EA0284600F051FA002814DA1E4800F042FACB
S31500002EB01C4F0646002EB7D0204600F017FB3346BF
S31500002EC001463A46284600F03FFA0028ACDB361A9F
S31500002ED00744EFE73F1A0644DBE700F02BFA064605
S31500002EE0002EAAD0204600F001FB334601463A46A2
S31500002EF0284600F029FA00289FDB361A0744EFE738
S31500002F00361A07449EE79B05B0D4A06D00F023FC5B
S31500002F10ACE700BFB4580000FB510000D4580000D5
S31500002F2094580000F8510000024B01461868FFF75C
S31500002F3061BF00BF040000200FB40A4B13B51C6824
S31500002F4024B1A36913B9204600F066FB05AB049AC9
S31500002F50A1682046019300F009FD02B0BDE81040CB
S31500002F6004B070470400002010B504460846114618
S31500002F708E2800F23081DFE810F039018F009200D0
S31500002F809400960098009A009C009E00A200A4005F
S31500002F90A800AA00AC00AE002E01B000B200B4003A
S31500002FA0B600B800BE00C000C600C800CA00CC000B
S31500002FB0CE00D200D600D800DA00DC00DE00E00049
S31500002FC0E200E4002E012E012E012E012E012E011B
S31500002FD02E012E01E800EC002E012E012E012E01FD
S31500002FE02E012E012E012E012E012E012E012E0163
S31500002FF02E01EE000801F000F2002E012E012E0136
S31500003000F4002E012E012E01F6002E012E01FA00EB
S315000030102E012E01FC002E012E012E012E012E0165
S315000030202E012E012E012E012E01FE002E01000181
S31500003030020104012E012E0126012E012E012E0170
S315000030402E012E012E012E012E01140106010A0168
S315000030500C010E0110012E01120116011A01EA00DF
S31500003060C2002C01BA00D000BC00A000A6002A01B4
S31500003070F8002E011801C4001E011C012E012E01AC
S315000030802E012E012E01D4002E012E012E01E60066
S315000030902801200122012401554B184610BD554B2D
S315000030A0FBE7554BF9E7554BF7E7554BF5E7554B1E
S315000030B0F3E7554BF1E7554BEFE7554BEDE7554B2E
S315000030C0EBE7554BE9E7554BE7E7554BE5E7554B3E
S315000030D0E3E7554BE1E7554BDFE7554BDDE7554B4E
S315000030E0DBE7554BD9E7554BD7E7554BD5E7554B5E
S315000030F0D3E7554BD1E7554BCFE7554BCDE7554B6E
S31500003100CBE7554BC9E7554BC7E7554BC5E7554B7D
S31500003110C3E7554BC1E7554BBFE7554BBDE7554B8D
S31500003120BBE7554BB9E7554BB7E7554BB5E7554B9D
S31500003130B3E7554BB1E7554BAFE7554BADE7554BAD
S31500003140ABE7554BA9E7554BA7E7554BA5E7554BBD
S31500003150A3E7554BA1E7554B9FE7554B9DE7554BCD
S315000031609BE7554B99E7554B97E7554B95E7554BDD
S3150000317093E7554B91E7554B8FE7554B8DE7554BED
S315000031808BE7554B89E7554B87E7554B85E7554BFD
S3150000319083E7554B81E7554B7FE7554B7DE7554B0D
S315000031A07BE7554B79E7554B77E7554B75E7554B1D
S315000031B073E7554B71E7554B6FE7554B6DE7554B2D
S315000031C06BE7554B69E7554B67E7554B65E7554B3D
S315000031D063E7554B61E7002B14BF1A46224600F001
S315000031E0B1F8524B002818BF034656E7504B54E738
S315000031F0FD5100000752000021520000315200002C
S3150000320049520000535200006D5200007F520000E8
S3150000321091520000AA520000BA520000C6520000A5
S31500003220E3520000F5520000065300001853000058
S31500003230245300003C530000485300005A5300003A
S31500003240695300007953000086530000A55300001F
S31500003250B4530000C5530000E953000007540000B2
S3150000326025540000455400005C5400006B540000D7
S315000032707A5400008E540000A6540000B454000096
S31500003280C1540000D7540000E6540000F254000078
S3150000329021550000325500004D55000060550000D4
S315000032A0765500007F550000965500009E5500009B
S315000032B0AB550000C0550000D4550000EC55000089
S315000032C0FB5500000C5600001F5600002B56000050
S315000032D04456000058560000735600008B560000F6
S315000032E0A5560000AD560000DD560000FC56000055
S315000032F01B57000032570000455700005E5700007C
S31500003300755700008B570000AC570000C4570000EB
S31500003310E0570000F3570000095800001D58000050
S315000033203F5800006558000076580000FC51000028
S315000033308B580000034613F8012B002AFBD1181AFC
S31500003340013870470020704738B50446064D0846D8
S31500003350114600222A601A4601F05FF8431C02D18A
S315000033602B6803B1236038BD300E01208A892DE910
S31500003370F041054610070C4658D44B68002B05DC77
S315000033800B6C002B02DC0020BDE8F081E66A002E03
S31500003390F9D0002312F480522F682B6032D0606D72
S315000033A0A3895A0705D56368C01A636B0BB1236CF2
S315000033B0C01A00230246E66A2846216AB047431C23
S315000033C0A38906D129681D292CD8294ACA40D607BF
S315000033D028D50022D90462602269226004D5421CE5
S315000033E001D12B6803B96065616B2F600029CAD0D3
S315000033F004F14403994202D0284600F0ADF90020BA
S315000034006063C1E7216A01232846B047411CC7D142
S315000034102B68002BC4D01D2B01D0162B01D12F6099
S31500003420B1E7A38943F04003A381ADE70F69002FFD
S31500003430A9D093070E680F600CBF4B690023A6EB5B
S3150000344007088B60B8F1000F9DDD43463A46216AB6
S315000034502846A66AB047002806DCA3894FF0FF304D
S3150000346043F04003A3818FE70744A8EB0008E9E790
S315000034700100402038B50B6905460C4613B90025F6
S31500003480284638BD18B183690BB900F0C5F8144B4E
S315000034909C421BD16C68B4F90C30002BEFD0626EE5
S315000034A0D00704D4990502D4A06D00F053F928463C
S315000034B02146FFF75BFF636E0546DA07E0D4A38972
S315000034C09B05DDD4A06D00F046F9D9E7054B9C427B
S315000034D001D1AC68DFE7044B9C4208BFEC68DAE731
S315000034E0B4580000D45800009458000070B51A4E25
S315000034F00446356825B1AB6913B9284600F08CF847
S31500003500164B9C4218D16C68636ED80705D4A38904
S31500003510990502D4A06D00F01DF9B4F90C30ABB1D9
S31500003520B4F90E50626ED20704D49B0502D4A06D86
S3150000353000F011F9284670BD094B9C4201D1AC68D8
S31500003540E2E7084B9C4208BFEC68DDE732680921D8
S315000035504FF0FF351160E5E704000020B458000085
S31500003560D458000094580000002310B50446836028
S31500003570818119464366C28108228361C0E900330E
S31500003580C0E904335C30FFF72CFC054B2462636210
S31500003590044BA362044BE362044B236310BD00BFDC
S315000035A0193F00003B3F0000733F0000973F0000BB
S315000035B0014900F0AFB800BF7534000070B568224D
S315000035C04D1E0E46554305F1740100F031F90446CF
S315000035D040B1002105F16802C0E900160C30A06078
S315000035E0FFF7FFFB204670BD014800F0B3B800BFEF
S315000035F0250E0120014800F0AEB800BF250E0120BF
S31500003600014800F0A7B800BF260E0120014800F0CF
S31500003610A2B800BF260E012010B50446FFF7F0FF42
S31500003620A3691BB1BDE81040FFF7F0BFC4E9123330
S3150000363023652046124B134A1B68A262A34204BFAD
S315000036400123A36100F020F86060204600F01CF81A
S31500003650A060204600F018F800220421E0606068AF
S31500003660FFF782FF01220921A068FFF77DFF0222F2
S315000036701221E068FFF778FF0123A361D2E700BFBC
S31500003680F4510000B1350000F8B50746FFF7ACFF6E
S315000036901E4B1E68B36913B93046FFF7BDFF4836A7
S315000036A0D6E90134013B03D533680BB33668F7E737
S315000036B0B4F90C50D5B9164B04F158006566E360B1
S315000036C000F047F8FFF796FF0822294604F15C0050
S315000036D02560A561C4E90155C4E90455FFF781FBDE
S315000036E0C4E90D55C4E912552046F8BD6834D9E73A
S315000036F004213846FFF762FF044630600028D5D122
S31500003700FFF778FF0C233B60EEE700BFF4510000A3
S315000037100100FFFF2DE9F8430646884600F14804FC
S315000037200027D4E90195B9F1010905D52468002CD3
S31500003730F7D13846BDE8F883AB89012B07D9B5F92F
S315000037400E30013303D029463046C047074368355B
S31500003750E9E770477047704737B5002943D051F8FD
S31500003760043C0C1F0190002BB8BFE41800F06EFD5E
S315000037701E4A0198136833B96360146003B0BDE84C
S31500003780304000F069BDA34208D9256861198B4213
S3150000379001BF19685B6849192160EDE71A465B6845
S315000037A00BB1A342FAD911685518A5420BD124686A
S315000037B0214454181160A342E0D11C685B6821447F
S315000037C053601160DAE702D90C230360D6E7256857
S315000037D061198B4202BF19685B684919636008BFAB
S315000037E021605460CAE703B030BD00BF280E012037
S315000037F070B50E4E0C460546316811B900F07CFBDB
S3150000380030602146284600F077FB431C0AD0C41CD2
S3150000381024F00304A04207D0211A284600F06CFBCE
S31500003820013001D14FF0FF34204670BD2C0E01202F
S315000038302DE9F041CD1C074625F0030508350C2D72
S3150000384038BF0C25002D01DBA94205D90C23002623
S315000038503B603046BDE8F0812E4E00F0F7FC336841
S315000038601C4634BB29463846FFF7C2FF431C0446B4
S315000038704DD134682646002E40D12368314638465D
S3150000388004EB030800F038FB80453AD12168033584
S3150000389038466D1A25F0030508350C2D38BF0C2562
S315000038A02946FFF7A5FF01302BD023682B44236060
S315000038B00EE02268521B1ED40B2A16D96119A342A8
S315000038C0256018BF5960636808BF316062514B605C
S315000038D004F10B06384600F0BFFC231D26F0070650
S315000038E0F21AB6D09B1BA350B3E76268A3420CBF83
S315000038F032605A60ECE723466468B2E7344676687D
S31500003900B9E70C2338463B6000F0A6FCA1E725602A
S31500003910DEE700BF280E01209368013B002B936071
S3150000392010B408DA9469A34201DB0A2903D15DF8D1
S31500003930044B00F035BB1368581C1060084619701C
S315000039405DF8044B7047F8B506460F461446D51881
S31500003950AC4201D1002007E03A4614F8011B30467C
S31500003960FFF7DAFF431CF3D1F8BDFFFF2DE9F04F57
S315000039700D469DB014469846064618B183690BB9A4
S31500003980FFF74AFE894B9D421BD175686B6ED907BE
S3150000399005D4AB899A0502D4A86DFFF7DBFEAB8987
S315000039A01B0701D52B69EBB92946304600F04AFBC7
S315000039B0C0B16B6EDC070ED54FF0FF301DB0BDE811
S315000039C0F08F7B4B9D4201D1B568DFE7794B9D4275
S315000039D008BFF568DAE7AB899805EDD4A86DFFF75F
S315000039E0BAFEE9E70023CDF80C804FF00109DFF8B5
S315000039F0C881099320238DF8293030238DF82A3089
S31500003A0023469A4613F8012B0AB1252AF9D1BAEBB7
S31500003A10040B0BD05B46224629463046FFF793FF40
S31500003A20013000F0AA80099A5A4409929AF80030A7
S31500003A30002B00F0A28000234FF0FF320AF1010AAA
S31500003A40049307938DF853301A93CDE90523544612
S31500003A500522594814F8011B00F0EAFB049AD8B96C
S31500003A60D10644BF20238DF85330130744BF2B23C0
S31500003A708DF853309AF800302A2B15D0079A544601
S31500003A8000204FF00A0C214611F8013B303B092B70
S31500003A904ED9B0B1079214E0A0EB0803A24609FA8A
S31500003AA003F313430493D2E7039B191D1B68002BF2
S31500003AB00391BBBF5B4242F0020207930793B8BF74
S31500003AC0049223782E2B0CD163782A2B35D1039BB5
S31500003AD002341A1D1B68002B0392B8BF4FF0FF3348
S31500003AE00593DFF8E4A003222178504600F0A0FBFE
S31500003AF040B14023A0EB0A00013403FA00F0049B16
S31500003B000343049314F8011B06222C488DF8281051
S31500003B1000F08EFB00283FD0294B1BBB039B0733CD
S31500003B2023F0070308330393099B3B44099367E794
S31500003B300CFB02320C460120A5E7002301344FF0AE
S31500003B400A0C19460593204610F8012B303A092A2B
S31500003B5003D9002BC5D00591C3E70CFB0121044610
S31500003B600123F0E703AB2A4604A930460093154B20
S31500003B7000E000BF0746781CD6D16B6ED90705D486
S31500003B80AB899A0502D4A86DFFF7E5FDAB895B0604
S31500003B903FF512AF099811E703AB2A4604A9304650
S31500003BA00093084B00F082F8E4E700BFB458000029
S31500003BB0D458000094580000F4580000FE58000045
S31500003BC00000000047390000FA5800002DE9F047D0
S31500003BD0164699468A6807460B690C46DDF820802A
S31500003BE09342B8BF1346336091F843200AB10133BC
S31500003BF033602368990642BF336802333360256811
S31500003C0015F0060506D104F1190AE36832689B1A15
S31500003C10AB4229DC94F84320131E226818BF012307
S31500003C2092062ED404F1430249463846C047013075
S31500003C3021D023681A3454F80E5C03F00603326868
S31500003C400026042B54F8123C08BFAD1A54F80A2C6F
S31500003C5014BF002525EAE5759342C4BF9B1AED18EB
S31500003C60B5421AD1002008E001235246494638469B
S31500003C70C047013003D14FF0FF30BDE8F087013572
S31500003C80C3E7E1185A1C30200233224481F843006E
S31500003C9094F8451082F84310C4E7012322464946AA
S31500003CA03846C0470130E6D00136D9E72DE9FF474F
S31500003CB00F7E914680460C46782F9A460C9D01F160
S31500003CC0430207D8622F0AD8002F00F0D880582F59
S31500003CD000F0A38004F1420584F842703AE0A7F1AF
S31500003CE06303152BF6D801A151F823F0453D0000DA
S31500003CF0593D0000D53C0000D53C0000D53C0000F5
S31500003D00D53C0000593D0000D53C0000D53C0000E4
S31500003D10D53C0000D53C0000653E0000893D000012
S31500003D20473E0000D53C0000D53C0000873E000021
S31500003D30D53C0000893D0000D53C0000D53C000084
S31500003D404F3E00002B681A1D1B682A6004F14205CD
S31500003D5084F842300123A3E020682968060601F1B1
S31500003D6004030AD50E682B60002E03DA2D23764253
S31500003D7084F843305E480A2319E00E6810F0400FBD
S31500003D802B6018BF36B2EFE72B682068191D296033
S31500003D90010601D51E6802E04606FBD51E886F2F78
S31500003DA053480CBF08230A23002184F84310656892
S31500003DB0002DA560A2BF216821F0040121600EB983
S31500003DC0002D4DD01546B6FBF3F103FB1167C75D19
S31500003DD005F8017D37460E46BB42F4D9082B0BD1B8
S31500003DE02368DE0708D5236961689942DEBF302360
S31500003DF005F8013C05F1FF35521B22614B4603AA2B
S31500003E0021464046CDF800A0FFF7E0FE01304CD138
S31500003E104FF0FF3004B0BDE8F087354881F84570B3
S31500003E202968236851F8046B29601D0614D5DF073D
S31500003E3044BF43F0200323601EB9236823F0200308
S31500003E4023601023B0E7236843F020032360782320
S31500003E50284884F84530E3E7590648BFB6B2E6E796
S31500003E601546BBE72B682668181D6169286035066C
S31500003E701B6801D5196002E07006FBD51980002386
S31500003E8015462361BAE72B6800211A1D2A601D68B2
S31500003E906268284600F0CCF908B1401B6060636890
S31500003EA02361002384F84330A8E723692A4649465C
S31500003EB04046D0470130ABD023689B0713D4E06857
S31500003EC0039B9842B8BF1846A4E7012332464946E9
S31500003ED04046D04701309BD00135E36803995B1A11
S31500003EE0AB42F2DCEBE7002504F11906F5E700BF6B
S31500003EF0055900001659000038B50023054D044643
S31500003F0008462B60FDF752F8431C02D12B6803B11B
S31500003F10236038BD300E012010B50C46B1F90E10E5
S31500003F2000F0A0F90028ABBF636DA3891B1823F42A
S31500003F308053ACBF6365A38110BD2DE9F0411F46D8
S31500003F408B8905460C46DB05164605D5022300225D
S31500003F50B1F90E1000F0F4F8A3893246B4F90E1048
S31500003F60284623F48053A3813B46BDE8F041FFF782
S31500003F70EBB910B50C46B1F90E1000F0E1F8431C90
S31500003F80A38915BF606523F4805343F48053A3814E
S31500003F9018BFA38110BDB1F90E1000F0C1B8FFFF24
S31500003FA0F8B50E461446054618B183690BB9FFF7F6
S31500003FB033FB214B9C422BD16C68A369A360A38978
S31500003FC01A072FD523696BB32369F6B220683746E3
S31500003FD0C01A6369834204DC21462846FFF74AFA81
S31500003FE030BBA3680130013BA36023685A1C2260E2
S31500003FF01E706369834204D0A389DB0706D50A2EA7
S3150000400004D121462846FFF735FA88B93846F8BD67
S315000040100A4B9C4201D1AC68CFE7094B9C4208BFD2
S31500004020EC68CAE72146284600F00CF80028CBD0F9
S315000040304FF0FF37EAE700BFB4580000D45800003D
S3150000404094580000324B70B51D6806460C4625B1E3
S31500004050AB6913B92846FFF7DFFA2E4B9C420FD106
S315000040606C68A389B4F90C2019072CD4DD0611D489
S315000040700923336042F040034FF0FF30A3813EE056
S31500004080254B9C4201D1AC68EBE7244B9C4208BF10
S31500004090EC68E6E7580712D5616B41B104F14403B9
S315000040A0994202D03046FFF757FB00236363A3898A
S315000040B023F02403A3810023636023692360A3897B
S315000040C043F00803A38123694BB9A38903F4207342
S315000040D0B3F5007F03D02146304600F069F8A08989
S315000040E0B4F90C2010F001030AD00023A360636921
S315000040F05B42A361236943B910F08000BAD170BD59
S31500004100810758BF6369A360F4E70020F7E700BFA3
S3150000411004000020B4580000D45800009458000051
S3150000412038B50023054D044608462B6000F0A6F975
S31500004130431C02D12B6803B1236038BD300E012029
S3150000414038B50446064D0846114600222A601A462E
S3150000415000F051F9431C02D12B6803B1236038BD2E
S31500004160300E012070B50E46B1F90E1096B0144609
S3150000417000291D4608DAB6F90C3000222A601A0614
S3150000418010D44FF480630EE06A4600F07DF80028F4
S31500004190F1DB019A02F47042A2F500535A425A41E9
S315000041A02A60EEE740230020236016B070BDFFFFB3
S315000041B08B8973B59D0706460C4607D504F1470360
S315000041C0236023610123636102B070BD01AB6A46BF
S315000041D0FFF7C8FF009905463046FFF729FB48B9A7
S315000041E0B4F90C309A05EFD423F0030343F002032D
S315000041F0A381E3E70D4BB362A389206043F08003FC
S315000042002061A381009B6361019B5BB1B4F90E1031
S31500004210304600F04BF828B1A38923F0030343F09E
S315000042200103A381A0890543A581CDE7B13500002F
S31500004230C9B2024410B59042034601D1002303E0FF
S315000042401C7801308C42F6D1184610BD0148FFF7A4
S3150000425081BA00BF240E01200148FFF77CBA00BFD7
S31500004260240E012038B50446064D084611460022A4
S315000042702A601A4600F067F8431C02D12B6803B186
S31500004280236038BD300E012038B50023064D0446A4
S31500004290084611462B6000F038F9431C02D12B6802
S315000042A003B1236038BD00BF300E012038B50023AE
S315000042B0054D044608462B6000F035F9431C02D133
S315000042C02B6803B1236038BD300E01200A4B10B5B0
S315000042D00446186818B183690BB9FFF79DF9132CCA
S315000042E007D8064850F83420013202D000EBC4004B
S315000042F010BD0020FCE700BF04000020340E0120A2
S31500004300F8B504461326FEF759FD00270546304644
S315000043103946ABBE064620462E60F8BD431C01D189
S31500004320FFF7EEBF704730B585B0062401AD0392A6
S31500004330CDE9010120462946ABBE04462046FFF7DB
S31500004340EDFF05B030BD37B515460191FFF7BEFF4D
S315000043500446019938B9FEF731FD092303604FF091
S31500004360FF3003B030BD2A460068FFF7DCFF431C70
S31500004370F7D02A1A6368134410466360F1E7F7B56D
S315000043800C461646FFF7A2FF054640B9FEF716FD96
S31500004390092303604FF0FF34204603B0F0BD022E20
S315000043A003D9FEF70BFD1623F3E7012E12D143685E
S315000043B0E418F6D42B680A266F46CDE90034304659
S315000043C03946ABBE06463046FFF7A8FF0028E1DBBC
S315000043D06C60E1E7022EEDD103680C266F46009370
S315000043E030463946ABBE06463046FFF797FF431CBC
S315000043F0D0D00444DEE7FFF7C2BF30B585B0052450
S3150000440001AD0392CDE9010120462946ABBE044623
S315000044102046FFF783FF05B030BD37B5154601913D
S31500004420FFF754FF0446019930B9FEF7C7FC09238C
S3150000443003604FF0FF3012E02A460068FFF7DDFF09
S315000044400028F6DB62682B1AA8421A44626005D17E
S31500004450002003B0BDE83040FFF752BF184603B056
S3150000446030BD37B5022401AD019020462946ABBECA
S3150000447004462046FFF752FF03B030BD38B5054667
S31500004480FFF724FF044630B9FEF798FC09230360C2
S315000044904FF0FF3038BD013D012D09D8094B9A6810
S315000044A01B699A4204D14FF0FF3303600020F1E705
S315000044B02068FFF7D6FF0028ECD14FF0FF332360CA
S315000044C0E8E700BF340E012070B50C46FFF7FEFE8C
S315000044D0054630B9FEF772FC092303604FF0FF3042
S315000044E070BD63680C2643F4005363604FF4806329
S315000044F0A36430462946ABBE05462846FFF70EFFA5
S31500004500431C1CBF20610020EAE70B46582200210D
S3150000451010B504461846FEF764FC01462046BDE881
S315000045201040FFF7D1BF70B5FFF7D0FE092504464E
S3150000453020B9FEF743FC0560204670BD284621469B
S31500004540ABBE0446012CF7D0FEF738FC0024054626
S31500004550132630462146ABBE06462E60ECE7FFFF2B
S315000045604275696C7420776974682052656E65734C
S31500004570617320416476616E63656420466C65787C
S3150000458069626C6520536F6674776172652050614D
S31500004590636B6167652076657273696F6E20332E73
S315000045A0362E3000332E362E300000000000060373
S315000045B0F8B500BFF8BC08BC9E467047F8B500BF0A
S315000045C0F8BC08BC9E4670475050504F5320657843
S315000045D0616D706C653A204572726F72206F7065FE
S315000045E06E696E6720646576696365005461736BF6
S315000045F0202573204F766572666C6F770D0A00FF73
S31500004600AC0000201C460000F847000049444C4519
S315000046105F5441534B00FFFF0000000008000000FC
S31500004620244600000000010008010000000001000F
S3150000463009010000000001000A010000000001005D
S315000046400003000000000104010300000000010453
S315000046500203000000000105080400000000010537
S315000046600904000092019301940195018C018D01CA
S315000046708E018F0100000000000000000000000015
S315000046800000000000000000000000000000000024
S315000046900000000000000000000000000000000014
S315000046A00000000000000000000000000000000004
S315000046B000000000000000000000000000000000F4
S315000046C000000000000000000000000000000000E4
S315000046D000000000000000000000000000000000D4
S315000046E000000000000000000000000000000000C4
S315000046F000000000000000000000000000000000B4
S3150000470000000000000000000000000000000000A3
S315000047100000000000000000000000000000000093
S315000047200000000075635356434E756D6265722036
S315000047303C3D2033000000002E2E2F72612F667341
S31500004740702F7372632F726D5F6672656572746F18
S31500004750735F706F72742F706F72742E6300FFFF39
S315000047602828285343425F54797065202A29202837
S315000047702830784530303045303030554C29202BA4
S3150000478020307830443030554C2920292D3E49437D
S315000047905352202620283078314646554C20292968
S315000047A0203D3D203000FFFF7578437269746963D0
S315000047B0616C4E657374696E6700FFFF76506F72A9
S315000047C07445786974437269746963616C00FFFFAC
S315000047D076506F7274456E7465724372697469635C
S315000047E0616C00FF76506F727453564348616E6475
S315000047F06C65725F4300FFFF9D0B0000C908000057
S31500004800B10B0000BD0B00008D090000E50900009A
S31500004810E1090000D5080000290900004909000047
S3150000482075090000C5090000F90800000D0900001F
S3150000483001000200080010002820282028207369A3
S315000048407A655F7420292070784E6577426C6F63B5
S315000048506B4C696E6B20292026202820307830305A
S31500004860303720292029203D3D2030002E2E2F7262
S31500004870612F6177732F616D617A6F6E2D66726538
S315000048806572746F732F6672656572746F735F6B92
S3150000489065726E656C2F706F727461626C652F4DF8
S315000048A0656D4D616E672F686561705F342E6300BC
S315000048B028202820282073697A655F7420292070B3
S315000048C07652657475726E20292026202820736919
S315000048D07A655F74202920282030783030303720E0
S315000048E0292029203D3D203000FFFFFF2820707839
S315000048F04C696E6B2D3E78426C6F636B53697A65BB
S3150000490020262078426C6F636B416C6C6F63617418
S315000049106564426974202920213D20300000000092
S3150000492070784C696E6B2D3E70784E657874467261
S315000049306565426C6F636B203D3D202828766F6964
S3150000494064202A29302900FF76506F7274467265FA
S315000049506500FFFF7076506F72744D616C6C6F630B
S3150000496000FFFFFF70785175657565002E2E2F725A
S31500004970612F6177732F616D617A6F6E2D66726537
S315000049806572746F732F6672656572746F735F6B91
S3150000499065726E656C2F71756575652E6300FFFF18
S315000049A0757851756575654C656E677468203E202F
S315000049B028205542617365547970655F74202920FB
S315000049C030000000707853746174696351756575C1
S315000049D06520213D202828766F6964202A29302900
S315000049E00000000021282028207075635175657528
S315000049F06553746F7261676520213D202828766FA4
S31500004A006964202A29302920292026262028207575
S31500004A10784974656D53697A65203D3D20302029BB
S31500004A20202900002128202820707563517565759E
S31500004A306553746F72616765203D3D202828766F47
S31500004A406964202A29302920292026262028207535
S31500004A50784974656D53697A6520213D2030202997
S31500004A60202900007853697A65203D3D2073697AD4
S31500004A70656F66282051756575655F74202900FF8E
S31500004A8075784D6178436F756E7420213D20300036
S31500004A907578496E697469616C436F756E74203CF4
S31500004AA03D2075784D6178436F756E7400FFFFFF8A
S31500004AB0212820282070764974656D546F517565DC
S31500004AC07565203D3D202828766F6964202A2930A7
S31500004AD0292029202626202820707851756575659D
S31500004AE02D3E75784974656D53697A6520213D20A0
S31500004AF028205542617365547970655F74202920BA
S31500004B003055202920290000212820282078436FAD
S31500004B107079506F736974696F6E203D3D2028204F
S31500004B20282042617365547970655F7420292032AC
S31500004B302029202920262620282070785175657581
S31500004B40652D3E75784C656E67746820213D203171
S31500004B5020292029000000002128202820785461DF
S31500004B60736B4765745363686564756C65725374DB
S31500004B706174652829203D3D202820282042617344
S31500004B8065547970655F74202920302029202920FA
S31500004B902626202820785469636B73546F57616901
S31500004BA07420213D20302029202900FF6354784CB1
S31500004BB06F636B20213D2028202820696E74385FA2
S31500004BC074202920313237202900FFFF7078517573
S31500004BD06575652D3E75784974656D53697A6520EE
S31500004BE03D3D20300000000021282028207078510B
S31500004BF0756575652D3E706348656164203D3D2091
S31500004C002828766F6964202A29302920292026261B
S31500004C10202820707851756575652D3E752E785360
S31500004C20656D6170686F72652E784D75746578482C
S31500004C306F6C64657220213D202828766F69642098
S31500004C402A2930292029202900FFFFFF28207078F3
S31500004C505175657565202900212820282028207097
S31500004C60764275666665722029203D3D20282876A5
S31500004C706F6964202A293029202920262620282009
S31500004C8028207078517565756520292D3E757849FF
S31500004C9074656D53697A6520213D2028205542614F
S31500004CA07365547970655F7420292030552029205A
S31500004CB02900FFFF78496E6865726974616E6365E5
S31500004CC04F63637572726564203D3D20282028205D
S31500004CD042617365547970655F74202920302029FC
S31500004CE000FFFFFF785175657565526563656976E6
S31500004CF06500FFFF78517565756547656E65726974
S31500004D006353656E6446726F6D49535200FFFFFF31
S31500004D1078517565756547656E6572696353656E2D
S31500004D206400FFFF7851756575654372656174654A
S31500004D30436F756E74696E6753656D6170686F72E7
S31500004D406553746174696300785175657565476567
S31500004D506E657269634372656174655374617469E3
S31500004D606300FFFF78517565756547656E65726905
S31500004D7063526573657400FF785175657565536593
S31500004D806D6170686F726554616B6500785461730C
S31500004D906B0000002E2E2F72612F6177732F616DCD
S31500004DA0617A6F6E2D6672656572746F732F6672A7
S31500004DB0656572746F735F6B65726E656C2F746177
S31500004DC0736B732E6300FFFF7578546F70507269B2
S31500004DD06F7269747900FFFF70785443422D3E75F7
S31500004DE063537461746963616C6C79416C6C6F6355
S31500004DF061746564203D3D202820282075696E7405
S31500004E00385F7420292032202900FFFF282028201F
S31500004E1028202820707844656C6179656454617334
S31500004E206B4C69737420292D3E75784E756D6265DD
S31500004E30724F664974656D73203D3D2028205542AA
S31500004E40617365547970655F7420292030202920AC
S31500004E503F202820282042617365547970655F746D
S31500004E60202920312029203A202820282042617339
S31500004E7065547970655F7420292030202920292007
S31500004E802900FFFF707578537461636B427566661F
S31500004E90657220213D202828766F6964202A2930F2
S31500004EA02900000070785461736B427566666572FE
S31500004EB020213D202828766F6964202A2930290080
S31500004EC07853697A65203D3D2073697A656F662857
S31500004ED0205443425F74202900FFFFFF7578536317
S31500004EE0686564756C657253757370656E64656428
S31500004EF0203D3D203000FFFF49444C4500000000A6
S31500004F007852657475726E20213D2028202D31203F
S31500004F102900FFFF75785363686564756C65725385
S31500004F20757370656E64656400FFFFFF7078457683
S31500004F30656E744C697374007078556E626C6F633D
S31500004F406B656454434200FF707854696D654F7514
S31500004F507400FFFF70785469636B73546F5761690F
S31500004F607400FFFF7078544342203D3D2070784323
S31500004F70757272656E745443420000007078544333
S31500004F80422D3E75784D75746578657348656C6419
S31500004F9000FFFFFF707854434220213D2070784384
S31500004FA0757272656E7454434200FFFF78546173E4
S31500004FB06B52656D6F766546726F6D4576656E747C
S31500004FC04C69737400FFFFFF765461736B506C611C
S31500004FD063654F6E4576656E744C6973745265737E
S31500004FE07472696374656400765461736B506C61A6
S31500004FF063654F6E4576656E744C69737400FFFF8A
S31500005000765461736B537769746368436F6E746526
S31500005010787400FF785461736B496E6372656D65D1
S315000050206E745469636B00FF785461736B526573D9
S31500005030756D65416C6C00FF765461736B537461DA
S3150000504072745363686564756C6572007654617337
S315000050506B44656C617900FF70727644656C6574AB
S315000050606554434200FFFFFF765461736B44656CE1
S3150000507065746500785461736B437265617465533A
S31500005080746174696300FFFF765461736B507269D3
S315000050906F72697479446973696E6865726974417F
S315000050A06674657254696D656F75740078546173C2
S315000050B06B5072696F72697479446973696E686559
S315000050C072697400785461736B436865636B466FED
S315000050D07254696D654F757400FFFFFF546D725110
S315000050E000FFFFFF28207854696D6572506572696C
S315000050F06F64496E5469636B73203E20302029002B
S315000051002E2E2F72612F6177732F616D617A6F6E0C
S315000051102D6672656572746F732F6672656572743B
S315000051206F735F6B65726E656C2F74696D657273F4
S315000051302E6300FF546D72205376630078526574B7
S3150000514075726E007854696D657200FF78526573EA
S31500005150756C74002820707854696D65722D3E78E0
S3150000516054696D6572506572696F64496E546963FE
S315000051706B73203E2030202900FFFFFF70727650AF
S31500005180726F636573735265636569766564436FB1
S315000051906D6D616E647300FF70727650726F636539
S315000051A073734578706972656454696D657200FF42
S315000051B070727653776974636854696D65724C6969
S315000051C0737473007854696D6572437265617465B2
S315000051D054696D65725461736B00FFFF7854696D95
S315000051E0657247656E65726963436F6D6D616E6466
S315000051F000FFFFFF080000203A20000A004E6F74EF
S31500005200206F776E6572004E6F2073756368206637
S31500005210696C65206F72206469726563746F727958
S31500005220004E6F20737563682070726F63657373C9
S3150000523000496E7465727275707465642073797353
S3150000524074656D2063616C6C00492F4F2065727226
S315000052506F72004E6F2073756368206465766963AC
S3150000526065206F72206164647265737300417267B2
S31500005270206C69737420746F6F206C6F6E670045C5
S3150000528078656320666F726D6174206572726F72E5
S3150000529000536F636B657420616C7265616479207D
S315000052A0636F6E6E6563746564004261642066694F
S315000052B06C65206E756D626572004E6F206368695D
S315000052C06C6472656E0044657374696E6174696FAF
S315000052D06E2061646472657373207265717569729C
S315000052E06564004E6F206D6F72652070726F636526
S315000052F073736573004E6F7420656E6F75676820F3
S315000053007370616365005065726D697373696F6E62
S315000053102064656E6965640042616420616464723C
S3150000532065737300446576696365206F72207265E4
S31500005330736F7572636520627573790046696C6573
S31500005340206578697374730043726F73732D646597
S3150000535076696365206C696E6B004E6F20737563AA
S315000053606820646576696365004E6F742061206409
S3150000537069726563746F727900486F73742069731C
S3150000538020646F776E00436F6E6E656374696F6E2F
S3150000539020616C726561647920696E2070726F6736
S315000053A07265737300497320612064697265637462
S315000053B06F727900496E76616C69642061726775F7
S315000053C06D656E74004E6574776F726B20696E74CE
S315000053D0657266616365206973206E6F7420636F02
S315000053E06E6669677572656400436F6E6E65637499
S315000053F0696F6E2061626F72746564206279206ED7
S315000054006574776F726B00546F6F206D616E7920D3
S315000054106F70656E2066696C657320696E2073799E
S315000054207374656D0046696C6520646573637269A3
S3150000543070746F722076616C756520746F6F206C66
S3150000544061726765004E6F742061206368617261E6
S315000054506374657220646576696365005465787463
S315000054602066696C6520627573790046696C6520F3
S31500005470746F6F206C6172676500486F7374206982
S315000054807320756E726561636861626C65004E6F4C
S31500005490207370616365206C656674206F6E20648E
S315000054A06576696365004E6F7420737570706F72F0
S315000054B074656400496C6C6567616C207365656B27
S315000054C000526561642D6F6E6C792066696C65208B
S315000054D073797374656D00546F6F206D616E7920FA
S315000054E06C696E6B730042726F6B656E20706970CB
S315000054F065004D617468656D6174696373206172DE
